{
    "contractName": "Ticket",
    "abi": [
        {
            "inputs": [
                {
                    "internalType": "string",
                    "name": "uri",
                    "type": "string"
                }
            ],
            "stateMutability": "nonpayable",
            "type": "constructor"
        },
        {
            "inputs": [],
            "name": "CategoryNotFound",
            "type": "error"
        },
        {
            "inputs": [],
            "name": "CategoryPriceMismatch",
            "type": "error"
        },
        {
            "inputs": [],
            "name": "CategorySupplyMismatch",
            "type": "error"
        },
        {
            "inputs": [
                {
                    "internalType": "address",
                    "name": "sender",
                    "type": "address"
                },
                {
                    "internalType": "uint256",
                    "name": "balance",
                    "type": "uint256"
                },
                {
                    "internalType": "uint256",
                    "name": "needed",
                    "type": "uint256"
                },
                {
                    "internalType": "uint256",
                    "name": "tokenId",
                    "type": "uint256"
                }
            ],
            "name": "ERC1155InsufficientBalance",
            "type": "error"
        },
        {
            "inputs": [
                {
                    "internalType": "address",
                    "name": "approver",
                    "type": "address"
                }
            ],
            "name": "ERC1155InvalidApprover",
            "type": "error"
        },
        {
            "inputs": [
                {
                    "internalType": "uint256",
                    "name": "idsLength",
                    "type": "uint256"
                },
                {
                    "internalType": "uint256",
                    "name": "valuesLength",
                    "type": "uint256"
                }
            ],
            "name": "ERC1155InvalidArrayLength",
            "type": "error"
        },
        {
            "inputs": [
                {
                    "internalType": "address",
                    "name": "operator",
                    "type": "address"
                }
            ],
            "name": "ERC1155InvalidOperator",
            "type": "error"
        },
        {
            "inputs": [
                {
                    "internalType": "address",
                    "name": "receiver",
                    "type": "address"
                }
            ],
            "name": "ERC1155InvalidReceiver",
            "type": "error"
        },
        {
            "inputs": [
                {
                    "internalType": "address",
                    "name": "sender",
                    "type": "address"
                }
            ],
            "name": "ERC1155InvalidSender",
            "type": "error"
        },
        {
            "inputs": [
                {
                    "internalType": "address",
                    "name": "operator",
                    "type": "address"
                },
                {
                    "internalType": "address",
                    "name": "owner",
                    "type": "address"
                }
            ],
            "name": "ERC1155MissingApprovalForAll",
            "type": "error"
        },
        {
            "inputs": [],
            "name": "EthTransferFailed",
            "type": "error"
        },
        {
            "inputs": [],
            "name": "EventNotActive",
            "type": "error"
        },
        {
            "inputs": [],
            "name": "InsufficientAllowance",
            "type": "error"
        },
        {
            "inputs": [],
            "name": "InsufficientTickets",
            "type": "error"
        },
        {
            "inputs": [],
            "name": "InvalidPaymentAmount",
            "type": "error"
        },
        {
            "inputs": [],
            "name": "InvalidPaymentToken",
            "type": "error"
        },
        {
            "inputs": [],
            "name": "NotTicketOwner",
            "type": "error"
        },
        {
            "inputs": [
                {
                    "internalType": "address",
                    "name": "owner",
                    "type": "address"
                }
            ],
            "name": "OwnableInvalidOwner",
            "type": "error"
        },
        {
            "inputs": [
                {
                    "internalType": "address",
                    "name": "account",
                    "type": "address"
                }
            ],
            "name": "OwnableUnauthorizedAccount",
            "type": "error"
        },
        {
            "inputs": [],
            "name": "ReentrancyGuardReentrantCall",
            "type": "error"
        },
        {
            "inputs": [],
            "name": "TicketAlreadyBurnt",
            "type": "error"
        },
        {
            "inputs": [],
            "name": "TicketAlreadyTransferred",
            "type": "error"
        },
        {
            "inputs": [],
            "name": "TokenTransferFailed",
            "type": "error"
        },
        {
            "inputs": [],
            "name": "WrongPaymentMethod",
            "type": "error"
        },
        {
            "anonymous": false,
            "inputs": [
                {
                    "indexed": true,
                    "internalType": "address",
                    "name": "account",
                    "type": "address"
                },
                {
                    "indexed": true,
                    "internalType": "address",
                    "name": "operator",
                    "type": "address"
                },
                {
                    "indexed": false,
                    "internalType": "bool",
                    "name": "approved",
                    "type": "bool"
                }
            ],
            "name": "ApprovalForAll",
            "type": "event"
        },
        {
            "anonymous": false,
            "inputs": [
                {
                    "indexed": true,
                    "internalType": "uint256",
                    "name": "eventId",
                    "type": "uint256"
                },
                {
                    "indexed": true,
                    "internalType": "address",
                    "name": "buyer",
                    "type": "address"
                },
                {
                    "indexed": true,
                    "internalType": "address",
                    "name": "recipient",
                    "type": "address"
                },
                {
                    "indexed": false,
                    "internalType": "uint256",
                    "name": "amount",
                    "type": "uint256"
                }
            ],
            "name": "EthPaymentProcessed",
            "type": "event"
        },
        {
            "anonymous": false,
            "inputs": [
                {
                    "indexed": true,
                    "internalType": "uint256",
                    "name": "eventId",
                    "type": "uint256"
                },
                {
                    "indexed": false,
                    "internalType": "string",
                    "name": "name",
                    "type": "string"
                },
                {
                    "indexed": false,
                    "internalType": "address",
                    "name": "organizer",
                    "type": "address"
                }
            ],
            "name": "EventCreated",
            "type": "event"
        },
        {
            "anonymous": false,
            "inputs": [
                {
                    "indexed": true,
                    "internalType": "address",
                    "name": "previousOwner",
                    "type": "address"
                },
                {
                    "indexed": true,
                    "internalType": "address",
                    "name": "newOwner",
                    "type": "address"
                }
            ],
            "name": "OwnershipTransferred",
            "type": "event"
        },
        {
            "anonymous": false,
            "inputs": [
                {
                    "indexed": true,
                    "internalType": "uint256",
                    "name": "eventId",
                    "type": "uint256"
                },
                {
                    "indexed": true,
                    "internalType": "address",
                    "name": "buyer",
                    "type": "address"
                },
                {
                    "indexed": true,
                    "internalType": "address",
                    "name": "token",
                    "type": "address"
                },
                {
                    "indexed": false,
                    "internalType": "uint256",
                    "name": "amount",
                    "type": "uint256"
                }
            ],
            "name": "PaymentProcessed",
            "type": "event"
        },
        {
            "anonymous": false,
            "inputs": [
                {
                    "indexed": true,
                    "internalType": "uint256",
                    "name": "eventId",
                    "type": "uint256"
                },
                {
                    "indexed": true,
                    "internalType": "uint256",
                    "name": "categoryId",
                    "type": "uint256"
                },
                {
                    "indexed": false,
                    "internalType": "uint256",
                    "name": "ticketNumber",
                    "type": "uint256"
                }
            ],
            "name": "TicketBurnt",
            "type": "event"
        },
        {
            "anonymous": false,
            "inputs": [
                {
                    "indexed": true,
                    "internalType": "uint256",
                    "name": "eventId",
                    "type": "uint256"
                },
                {
                    "indexed": true,
                    "internalType": "uint256",
                    "name": "categoryId",
                    "type": "uint256"
                },
                {
                    "indexed": false,
                    "internalType": "uint256",
                    "name": "ticketNumber",
                    "type": "uint256"
                },
                {
                    "indexed": false,
                    "internalType": "address",
                    "name": "buyer",
                    "type": "address"
                }
            ],
            "name": "TicketPurchased",
            "type": "event"
        },
        {
            "anonymous": false,
            "inputs": [
                {
                    "indexed": true,
                    "internalType": "address",
                    "name": "operator",
                    "type": "address"
                },
                {
                    "indexed": true,
                    "internalType": "address",
                    "name": "from",
                    "type": "address"
                },
                {
                    "indexed": true,
                    "internalType": "address",
                    "name": "to",
                    "type": "address"
                },
                {
                    "indexed": false,
                    "internalType": "uint256[]",
                    "name": "ids",
                    "type": "uint256[]"
                },
                {
                    "indexed": false,
                    "internalType": "uint256[]",
                    "name": "values",
                    "type": "uint256[]"
                }
            ],
            "name": "TransferBatch",
            "type": "event"
        },
        {
            "anonymous": false,
            "inputs": [
                {
                    "indexed": true,
                    "internalType": "address",
                    "name": "operator",
                    "type": "address"
                },
                {
                    "indexed": true,
                    "internalType": "address",
                    "name": "from",
                    "type": "address"
                },
                {
                    "indexed": true,
                    "internalType": "address",
                    "name": "to",
                    "type": "address"
                },
                {
                    "indexed": false,
                    "internalType": "uint256",
                    "name": "id",
                    "type": "uint256"
                },
                {
                    "indexed": false,
                    "internalType": "uint256",
                    "name": "value",
                    "type": "uint256"
                }
            ],
            "name": "TransferSingle",
            "type": "event"
        },
        {
            "anonymous": false,
            "inputs": [
                {
                    "indexed": false,
                    "internalType": "string",
                    "name": "value",
                    "type": "string"
                },
                {
                    "indexed": true,
                    "internalType": "uint256",
                    "name": "id",
                    "type": "uint256"
                }
            ],
            "name": "URI",
            "type": "event"
        },
        {
            "stateMutability": "payable",
            "type": "fallback"
        },
        {
            "inputs": [
                {
                    "internalType": "address",
                    "name": "account",
                    "type": "address"
                },
                {
                    "internalType": "uint256",
                    "name": "id",
                    "type": "uint256"
                }
            ],
            "name": "balanceOf",
            "outputs": [
                {
                    "internalType": "uint256",
                    "name": "",
                    "type": "uint256"
                }
            ],
            "stateMutability": "view",
            "type": "function"
        },
        {
            "inputs": [
                {
                    "internalType": "address[]",
                    "name": "accounts",
                    "type": "address[]"
                },
                {
                    "internalType": "uint256[]",
                    "name": "ids",
                    "type": "uint256[]"
                }
            ],
            "name": "balanceOfBatch",
            "outputs": [
                {
                    "internalType": "uint256[]",
                    "name": "",
                    "type": "uint256[]"
                }
            ],
            "stateMutability": "view",
            "type": "function"
        },
        {
            "inputs": [
                {
                    "internalType": "uint256",
                    "name": "eventId",
                    "type": "uint256"
                },
                {
                    "internalType": "uint256",
                    "name": "categoryId",
                    "type": "uint256"
                },
                {
                    "internalType": "uint256",
                    "name": "quantity",
                    "type": "uint256"
                }
            ],
            "name": "bookTicket",
            "outputs": [],
            "stateMutability": "payable",
            "type": "function"
        },
        {
            "inputs": [
                {
                    "internalType": "uint256",
                    "name": "eventId",
                    "type": "uint256"
                },
                {
                    "internalType": "uint256",
                    "name": "categoryId",
                    "type": "uint256"
                },
                {
                    "internalType": "uint256",
                    "name": "ticketNumber",
                    "type": "uint256"
                }
            ],
            "name": "burnTicket",
            "outputs": [],
            "stateMutability": "nonpayable",
            "type": "function"
        },
        {
            "inputs": [
                {
                    "internalType": "uint256",
                    "name": "",
                    "type": "uint256"
                },
                {
                    "internalType": "uint256",
                    "name": "",
                    "type": "uint256"
                },
                {
                    "internalType": "uint256",
                    "name": "",
                    "type": "uint256"
                }
            ],
            "name": "burntTickets",
            "outputs": [
                {
                    "internalType": "bool",
                    "name": "",
                    "type": "bool"
                }
            ],
            "stateMutability": "view",
            "type": "function"
        },
        {
            "inputs": [
                {
                    "internalType": "string",
                    "name": "_name",
                    "type": "string"
                },
                {
                    "internalType": "string",
                    "name": "_uri",
                    "type": "string"
                },
                {
                    "internalType": "string",
                    "name": "_location",
                    "type": "string"
                },
                {
                    "internalType": "uint256[]",
                    "name": "_categoryIds",
                    "type": "uint256[]"
                },
                {
                    "internalType": "uint256[]",
                    "name": "_supplies",
                    "type": "uint256[]"
                },
                {
                    "internalType": "uint256[]",
                    "name": "_prices",
                    "type": "uint256[]"
                },
                {
                    "internalType": "address",
                    "name": "_paymentToken",
                    "type": "address"
                }
            ],
            "name": "createEvent",
            "outputs": [],
            "stateMutability": "nonpayable",
            "type": "function"
        },
        {
            "inputs": [
                {
                    "internalType": "uint256",
                    "name": "",
                    "type": "uint256"
                }
            ],
            "name": "eventPaymentTokens",
            "outputs": [
                {
                    "internalType": "address",
                    "name": "",
                    "type": "address"
                }
            ],
            "stateMutability": "view",
            "type": "function"
        },
        {
            "inputs": [
                {
                    "internalType": "uint256",
                    "name": "",
                    "type": "uint256"
                }
            ],
            "name": "events",
            "outputs": [
                {
                    "internalType": "uint256",
                    "name": "eventId",
                    "type": "uint256"
                },
                {
                    "internalType": "string",
                    "name": "name",
                    "type": "string"
                },
                {
                    "internalType": "string",
                    "name": "uri",
                    "type": "string"
                },
                {
                    "internalType": "string",
                    "name": "location",
                    "type": "string"
                },
                {
                    "internalType": "address",
                    "name": "organizer",
                    "type": "address"
                },
                {
                    "internalType": "bool",
                    "name": "active",
                    "type": "bool"
                }
            ],
            "stateMutability": "view",
            "type": "function"
        },
        {
            "inputs": [
                {
                    "internalType": "uint256",
                    "name": "eventId",
                    "type": "uint256"
                }
            ],
            "name": "getEventPaymentDetails",
            "outputs": [
                {
                    "internalType": "address",
                    "name": "token",
                    "type": "address"
                },
                {
                    "internalType": "bool",
                    "name": "isEth",
                    "type": "bool"
                }
            ],
            "stateMutability": "view",
            "type": "function"
        },
        {
            "inputs": [
                {
                    "internalType": "uint256",
                    "name": "eventId",
                    "type": "uint256"
                }
            ],
            "name": "getEventPaymentToken",
            "outputs": [
                {
                    "internalType": "address",
                    "name": "",
                    "type": "address"
                }
            ],
            "stateMutability": "view",
            "type": "function"
        },
        {
            "inputs": [
                {
                    "internalType": "uint256",
                    "name": "eventId",
                    "type": "uint256"
                },
                {
                    "internalType": "uint256",
                    "name": "categoryId",
                    "type": "uint256"
                },
                {
                    "internalType": "address",
                    "name": "owner",
                    "type": "address"
                }
            ],
            "name": "getOwnedTickets",
            "outputs": [
                {
                    "internalType": "uint256[]",
                    "name": "",
                    "type": "uint256[]"
                }
            ],
            "stateMutability": "view",
            "type": "function"
        },
        {
            "inputs": [
                {
                    "internalType": "uint256",
                    "name": "eventId",
                    "type": "uint256"
                },
                {
                    "internalType": "uint256",
                    "name": "categoryId",
                    "type": "uint256"
                },
                {
                    "internalType": "uint256",
                    "name": "ticketNumber",
                    "type": "uint256"
                }
            ],
            "name": "getTicketOwner",
            "outputs": [
                {
                    "internalType": "address",
                    "name": "",
                    "type": "address"
                }
            ],
            "stateMutability": "view",
            "type": "function"
        },
        {
            "inputs": [
                {
                    "internalType": "uint256",
                    "name": "",
                    "type": "uint256"
                },
                {
                    "internalType": "address",
                    "name": "",
                    "type": "address"
                }
            ],
            "name": "hasBeenTransferred",
            "outputs": [
                {
                    "internalType": "bool",
                    "name": "",
                    "type": "bool"
                }
            ],
            "stateMutability": "view",
            "type": "function"
        },
        {
            "inputs": [
                {
                    "internalType": "address",
                    "name": "account",
                    "type": "address"
                },
                {
                    "internalType": "address",
                    "name": "operator",
                    "type": "address"
                }
            ],
            "name": "isApprovedForAll",
            "outputs": [
                {
                    "internalType": "bool",
                    "name": "",
                    "type": "bool"
                }
            ],
            "stateMutability": "view",
            "type": "function"
        },
        {
            "inputs": [
                {
                    "internalType": "uint256",
                    "name": "eventId",
                    "type": "uint256"
                }
            ],
            "name": "isEthPaymentEvent",
            "outputs": [
                {
                    "internalType": "bool",
                    "name": "",
                    "type": "bool"
                }
            ],
            "stateMutability": "view",
            "type": "function"
        },
        {
            "inputs": [
                {
                    "internalType": "uint256",
                    "name": "eventId",
                    "type": "uint256"
                },
                {
                    "internalType": "uint256",
                    "name": "categoryId",
                    "type": "uint256"
                },
                {
                    "internalType": "uint256",
                    "name": "ticketNumber",
                    "type": "uint256"
                }
            ],
            "name": "isTicketBurnt",
            "outputs": [
                {
                    "internalType": "bool",
                    "name": "",
                    "type": "bool"
                }
            ],
            "stateMutability": "view",
            "type": "function"
        },
        {
            "inputs": [],
            "name": "nextEventId",
            "outputs": [
                {
                    "internalType": "uint256",
                    "name": "",
                    "type": "uint256"
                }
            ],
            "stateMutability": "view",
            "type": "function"
        },
        {
            "inputs": [],
            "name": "owner",
            "outputs": [
                {
                    "internalType": "address",
                    "name": "",
                    "type": "address"
                }
            ],
            "stateMutability": "view",
            "type": "function"
        },
        {
            "inputs": [],
            "name": "renounceOwnership",
            "outputs": [],
            "stateMutability": "nonpayable",
            "type": "function"
        },
        {
            "inputs": [
                {
                    "internalType": "address",
                    "name": "from",
                    "type": "address"
                },
                {
                    "internalType": "address",
                    "name": "to",
                    "type": "address"
                },
                {
                    "internalType": "uint256[]",
                    "name": "ids",
                    "type": "uint256[]"
                },
                {
                    "internalType": "uint256[]",
                    "name": "values",
                    "type": "uint256[]"
                },
                {
                    "internalType": "bytes",
                    "name": "data",
                    "type": "bytes"
                }
            ],
            "name": "safeBatchTransferFrom",
            "outputs": [],
            "stateMutability": "nonpayable",
            "type": "function"
        },
        {
            "inputs": [
                {
                    "internalType": "address",
                    "name": "from",
                    "type": "address"
                },
                {
                    "internalType": "address",
                    "name": "to",
                    "type": "address"
                },
                {
                    "internalType": "uint256",
                    "name": "id",
                    "type": "uint256"
                },
                {
                    "internalType": "uint256",
                    "name": "value",
                    "type": "uint256"
                },
                {
                    "internalType": "bytes",
                    "name": "data",
                    "type": "bytes"
                }
            ],
            "name": "safeTransferFrom",
            "outputs": [],
            "stateMutability": "nonpayable",
            "type": "function"
        },
        {
            "inputs": [
                {
                    "internalType": "address",
                    "name": "operator",
                    "type": "address"
                },
                {
                    "internalType": "bool",
                    "name": "approved",
                    "type": "bool"
                }
            ],
            "name": "setApprovalForAll",
            "outputs": [],
            "stateMutability": "nonpayable",
            "type": "function"
        },
        {
            "inputs": [
                {
                    "internalType": "bytes4",
                    "name": "interfaceId",
                    "type": "bytes4"
                }
            ],
            "name": "supportsInterface",
            "outputs": [
                {
                    "internalType": "bool",
                    "name": "",
                    "type": "bool"
                }
            ],
            "stateMutability": "view",
            "type": "function"
        },
        {
            "inputs": [
                {
                    "internalType": "uint256",
                    "name": "",
                    "type": "uint256"
                },
                {
                    "internalType": "uint256",
                    "name": "",
                    "type": "uint256"
                },
                {
                    "internalType": "uint256",
                    "name": "",
                    "type": "uint256"
                }
            ],
            "name": "ticketOwners",
            "outputs": [
                {
                    "internalType": "address",
                    "name": "",
                    "type": "address"
                }
            ],
            "stateMutability": "view",
            "type": "function"
        },
        {
            "inputs": [
                {
                    "internalType": "address",
                    "name": "newOwner",
                    "type": "address"
                }
            ],
            "name": "transferOwnership",
            "outputs": [],
            "stateMutability": "nonpayable",
            "type": "function"
        },
        {
            "inputs": [
                {
                    "internalType": "uint256",
                    "name": "",
                    "type": "uint256"
                }
            ],
            "name": "uri",
            "outputs": [
                {
                    "internalType": "string",
                    "name": "",
                    "type": "string"
                }
            ],
            "stateMutability": "view",
            "type": "function"
        },
        {
            "stateMutability": "payable",
            "type": "receive"
        }
    ],
    "bytecode": "608060405234610260576125158038038061001981610264565b928339810190602081830312610260578051906001600160401b038211610260570181601f82011215610260578051906001600160401b03821161024c5761006a601f8301601f1916602001610264565b928284526020838301011161026057815f9260208093018386015e8301015280516001600160401b03811161024c57600254600181811c91168015610242575b602082101461022e57601f81116101cb575b50602091601f821160011461016b579181925f92610160575b50508160011b915f199060031b1c1916176002555b331561014d5760038054336001600160a01b03198216811790925560405191906001600160a01b03167f8be0079c531659141344cd1fd0a4f28419497f9722a3daafe3b4186f6b6457e05f80a36001600455600160055561228b908161028a8239f35b631e4fbdf760e01b5f525f60045260245ffd5b015190505f806100d5565b601f1982169260025f52805f20915f5b8581106101b35750836001951061019b575b505050811b016002556100ea565b01515f1960f88460031b161c191690555f808061018d565b9192602060018192868501518155019401920161017b565b60025f527f405787fa12a823e0f2b7631cc41b3ba8828b3321ca811111fa75cd3aa3bb5ace601f830160051c81019160208410610224575b601f0160051c01905b81811061021957506100bc565b5f815560010161020c565b9091508190610203565b634e487b7160e01b5f52602260045260245ffd5b90607f16906100aa565b634e487b7160e01b5f52604160045260245ffd5b5f80fd5b6040519190601f01601f191682016001600160401b0381118382101761024c5760405256fe60806040526004361015610010575b005b5f3560e01c8062fdd58e1461019f57806301ffc9a71461019a5780630b12c82f146101955780630b791430146101905780630e89341c1461018b578063187a8884146101865780632eb2c2d61461018157806339a69fcd1461017c5780634e1273f41461017757806352b2eb3f1461016d5780635733dcbc1461017257806360a341151461016d578063715018a6146101685780637837389a1461014a5780638da5cb5b14610163578063972435f2146101405780639f9d903a1461015e578063a22cb46514610159578063b019d3e514610154578063bbfb76d41461014f578063bf2ee9391461014a578063dce8462114610145578063e400fade14610140578063e985e9c51461013b578063f242432a146101365763f2fde38b0361000e57611223565b61117d565b61112d565b610b96565b6110de565b610b2d565b610ef9565b610ca4565b610bfb565b610bd4565b610b6e565b610ad2565b610a6d565b610a9f565b6109ae565b61083f565b61079b565b6106ba565b6104f4565b610449565b6102dc565b61026e565b610214565b600435906001600160a01b03821682036101ba57565b5f80fd5b60c435906001600160a01b03821682036101ba57565b602435906001600160a01b03821682036101ba57565b604435906001600160a01b03821682036101ba57565b35906001600160a01b03821682036101ba57565b346101ba5760403660031901126101ba5760206102536102326101a4565b6024355f525f835260405f209060018060a01b03165f5260205260405f2090565b54604051908152f35b6001600160e01b03198116036101ba57565b346101ba5760203660031901126101ba57602060043561028d8161025c565b63ffffffff60e01b16636cdb3d1360e11b81149081156102cb575b81156102ba575b506040519015158152f35b6301ffc9a760e01b1490505f6102af565b6303a24d0760e21b811491506102a8565b346101ba5760203660031901126101ba576004355f526007602052604060018060a01b03815f205416815190808252156020820152f35b90600182811c92168015610341575b602083101461032d57565b634e487b7160e01b5f52602260045260245ffd5b91607f1691610322565b634e487b7160e01b5f52604160045260245ffd5b90601f801991011681019081106001600160401b0382111761038057604052565b61034b565b9060405191825f82549261039884610313565b808452936001811690811561040357506001146103bf575b506103bd9250038361035f565b565b90505f9291925260205f20905f915b8183106103e75750509060206103bd928201015f6103b0565b60209193508060019154838589010152019101909184926103ce565b9050602092506103bd94915060ff191682840152151560051b8201015f6103b0565b805180835260209291819084018484015e5f828201840152601f01601f1916010190565b346101ba5760203660031901126101ba576004355f52600660205260405f20805461047660018301610385565b9160ff6104d661048860028401610385565b926104c8600761049a60038401610385565b920154946104ba604051988998895260c060208a015260c0890190610425565b908782036040890152610425565b908582036060870152610425565b9160018060a01b038116608085015260a01c16151560a08301520390f35b346101ba5760203660031901126101ba576040515f60025461051581610313565b80845290600181169081156105b35750600114610555575b6105518361053d8185038261035f565b604051918291602083526020830190610425565b0390f35b60025f9081527f405787fa12a823e0f2b7631cc41b3ba8828b3321ca811111fa75cd3aa3bb5ace939250905b8082106105995750909150810160200161053d61052d565b919260018160209254838588010152019101909291610581565b60ff191660208086019190915291151560051b8401909101915061053d905061052d565b604051906103bd6101208361035f565b6001600160401b03811161038057601f01601f191660200190565b81601f820112156101ba5760208135910161061c826105e7565b9261062a604051948561035f565b828452828201116101ba57815f92602092838601378301015290565b6001600160401b0381116103805760051b60200190565b9080601f830112156101ba57813561067481610646565b92610682604051948561035f565b81845260208085019260051b8201019283116101ba57602001905b8282106106aa5750505090565b813581526020918201910161069d565b346101ba5760e03660031901126101ba576004356001600160401b0381116101ba576106ea903690600401610602565b6024356001600160401b0381116101ba57610709903690600401610602565b906044356001600160401b0381116101ba57610729903690600401610602565b916064356001600160401b0381116101ba5761074990369060040161065d565b6084356001600160401b0381116101ba5761076890369060040161065d565b9060a435946001600160401b0386116101ba5761078c61000e96369060040161065d565b936107956101be565b956112a9565b346101ba5760a03660031901126101ba576107b46101a4565b6107bc6101d4565b906044356001600160401b0381116101ba576107dc90369060040161065d565b6064356001600160401b0381116101ba576107fb90369060040161065d565b90608435936001600160401b0385116101ba5761081f61000e953690600401610602565b9361168e565b60609060031901126101ba57600435906024359060443590565b346101ba5761084d36610825565b610855611828565b825f52600860205260405f20825f5260205261088c61087f8260405f20905f5260205260405f2090565b546001600160a01b031690565b336001600160a01b0390911603610958576108ce6108c7826108ba856108ba885f52600960205260405f2090565b905f5260205260405f2090565b5460ff1690565b61094957827fba23a3b91ff992453791d8671e46c7c201af658a78cf80d1e1df17f4a7e8d5e56109368361092661091987966108ba886108ba61093f9c5f52600960205260405f2090565b805460ff19166001179055565b6040519081529081906020820190565b0390a333611978565b61000e6001600455565b636cb36ca960e11b5f5260045ffd5b63e18d39ad60e01b5f5260045ffd5b90602080835192838152019201905f5b8181106109845750505090565b8251845260209384019390920191600101610977565b9060206109ab928181520190610967565b90565b346101ba5760403660031901126101ba576004356001600160401b0381116101ba57366023820112156101ba578060040135906109ea82610646565b916109f8604051938461035f565b8083526024602084019160051b830101913683116101ba57602401905b828210610a5557836024356001600160401b0381116101ba5761055191610a43610a4992369060040161065d565b90611784565b6040519182918261099a565b60208091610a6284610200565b815201910190610a15565b346101ba5760203660031901126101ba576004355f526007602052602060018060a01b0360405f205416604051908152f35b346101ba5760203660031901126101ba576004355f526007602052602060018060a01b0360405f20541615604051908152f35b346101ba575f3660031901126101ba57610aea611af2565b600380546001600160a01b031981169091555f906001600160a01b03167f8be0079c531659141344cd1fd0a4f28419497f9722a3daafe3b4186f6b6457e08280a3005b346101ba57610b3b36610825565b915f52600860205260405f20905f5260205260405f20905f52602052602060018060a01b0360405f205416604051908152f35b346101ba575f3660031901126101ba576003546040516001600160a01b039091168152602090f35b346101ba57610ba436610825565b915f52600960205260405f20905f5260205260405f20905f52602052602060ff60405f2054166040519015158152f35b346101ba575f3660031901126101ba576020600554604051908152f35b801515036101ba57565b346101ba5760403660031901126101ba57610c146101a4565b602435610c2081610bf1565b6001600160a01b038216918215610c9257335f9081526001602090815260408083206001600160a01b0390941683529290522060ff1981541660ff8315151617905560405190151581527f17307eab39ab6107e8899845ad3d59bd9653f200f220920489ca2b5937696c3160203392a3005b62ced3e160e81b5f525f60045260245ffd5b610cad36610825565b610cb5611828565b610cc7835f52600660205260405f2090565b600781018054909160ff60a083901c1615610ce1565b1590565b610eea575f905f5f600483018054915b828110610ebe575b50505015610eaf5785610d39610d2c87610d27610d1d82976006610d5d9801611813565b90549060031b1c90565b61150a565b946001600160a01b031690565b5f918252602082815260408084206001600160a01b03909316845291905290205490565b10610ea057610d6b83611725565b945f5b848110610e1757505f5b848110610dc45761093f8686610db387610da58888610d9d845460018060a01b031690565b903390611bbd565b50546001600160a01b031690565b91610dbc61167a565b923390611dc6565b8086837ff4810f4af7d42912f869f8efa162c4287b2dbce7d45c8777141a2c01d68bc0af610e0e610df76001968d61176b565b516040805191825233602083015290918291820190565b0390a301610d78565b600190610e248784611b19565b610e6133610e42836108ba8c6108ba8a5f52600860205260405f2090565b80546001600160a01b0319166001600160a01b03909216919091179055565b610e8f61091933610e7a8b5f52600a60205260405f2090565b9060018060a01b03165f5260205260405f2090565b610e99828a61176b565b5201610d6e565b630678856f60e21b5f5260045ffd5b63201a7e1b60e21b5f5260045ffd5b89610ecc610d1d8385611813565b14610ed957600101610cf1565b9394505050509060015f8080610cf9565b6301e1837960e31b5f5260045ffd5b346101ba5760603660031901126101ba57600435602435610f186101ea565b905f91610f2d845f52600660205260405f2090565b925f935f600482018054915b8281106110b2575b505050610f57919293946005610d1d9201611813565b926001600160a01b039092169160015b848111156110375750610f7982611725565b925f9260015b868111158061102e575b15611020578781858560018060a01b03610fb661087f856108ba866108ba8a5f52600860205260405f2090565b16149283610ff6575b505050610fd5575b610fd0906113d3565b610f7f565b93610fee8186610fe8610fd0948a61176b565b526113d3565b949050610fc7565b6110189350916108ba6108c7926108ba610cdd955f52600960205260405f2090565b81858a610fbf565b60405180610551888261099a565b50818510610f89565b8360018060a01b0361105c61087f846108ba876108ba8d5f52600860205260405f2090565b16148061108c575b611077575b611072906113d3565b610f67565b91611084611072916113d3565b929050611069565b506110ad610cdd6108c7836108ba866108ba8c5f52600960205260405f2090565b611064565b866110c0610d1d8385611813565b146110cd57600101610f39565b965082915060059050610f57610f41565b346101ba5760403660031901126101ba57602060ff6111216004356111016101d4565b905f52600a845260405f209060018060a01b03165f5260205260405f2090565b54166040519015158152f35b346101ba5760403660031901126101ba57602060ff61112161114d6101a4565b6111556101d4565b6001600160a01b039182165f9081526001865260408082209290931681526020919091522090565b346101ba5760a03660031901126101ba576111966101a4565b61119e6101d4565b6064356044356084356001600160401b0381116101ba576111c3903690600401610602565b6001600160a01b038516949093903386141580611200575b6111e95761000e9550611dc6565b8563711bec9160e11b5f523360045260245260445ffd5b505f86815260016020908152604080832033845290915290205460ff16156111db565b346101ba5760203660031901126101ba5761123c6101a4565b611244611af2565b6001600160a01b0316801561129657600380546001600160a01b0319811683179091556001600160a01b03167f8be0079c531659141344cd1fd0a4f28419497f9722a3daafe3b4186f6b6457e05f80a3005b631e4fbdf760e01b5f525f60045260245ffd5b9591929490956112b7611828565b85518551036113b05785518251036113a1576113777f40fb05b814a900c99fa0a76d919dfdeaf3389540e4ca70f97ba40ca9a38f37979361136561139799611385956005549861130e6113098b6113d3565b600555565b6113166105d7565b8a81526020810188905260408101939093526060830152608082018b905260a082018a905260c08201523360e08201526001610100820152611360885f52600660205260405f2090565b611595565b610e42865f52600760205260405f2090565b604051918291339083611652565b0390a261139061167a565b9133611848565b6103bd6001600455565b63ef213f7560e01b5f5260045ffd5b63d4350e1d60e01b5f5260045ffd5b634e487b7160e01b5f52601160045260245ffd5b5f1981146113e15760010190565b6113bf565b8181106113f1575050565b5f81556001016113e6565b9190601f811161140b57505050565b6103bd925f5260205f20906020601f840160051c83019310611435575b601f0160051c01906113e6565b9091508190611428565b91909182516001600160401b03811161038057611466816114608454610313565b846113fc565b6020601f82116001146114a55781906114969394955f9261149a575b50508160011b915f199060031b1c19161790565b9055565b015190505f80611482565b601f198216906114b8845f5260205f2090565b915f5b8181106114f2575095836001959697106114da575b505050811b019055565b01515f1960f88460031b161c191690555f80806114d0565b9192602060018192868b0151815501940192016114bb565b818102929181159184041417156113e157565b8151916001600160401b0383116103805768010000000000000000831161038057602090825484845580851061157a575b5001905f5260205f205f5b8381106115665750505050565b600190602084519401938184015501611559565b61158f90845f5285845f2091820191016113e6565b5f61154e565b9061163861010060076103bd94845181556115b760208601516001830161143f565b6115c860408601516002830161143f565b6115d960608601516003830161143f565b6115ea60808601516004830161151d565b6115fb60a08601516005830161151d565b61160c60c08601516006830161151d565b60e0850151910180546001600160a01b0319166001600160a01b03909216919091178155920151151590565b815460ff60a01b191690151560a01b60ff60a01b16179055565b9061166a602091949394604084526040840190610425565b6001600160a01b03909416910152565b6040519061168960208361035f565b5f8252565b939291906001600160a01b0385163381141580611702575b6116ec576001600160a01b038216156116d957156116c7576103bd94611e18565b626a0d4560e21b5f525f60045260245ffd5b632bfa23e760e11b5f525f60045260245ffd5b63711bec9160e11b5f523360045260245260445ffd5b505f81815260016020908152604080832033845290915290205460ff16156116a6565b9061172f82610646565b61173c604051918261035f565b828152809261174d601f1991610646565b0190602036910137565b634e487b7160e01b5f52603260045260245ffd5b805182101561177f5760209160051b010190565b611757565b919091805183518082036117fe57505061179e8151611725565b905f5b81518110156117f757806117e660019260051b60208082870101519189010151905f918252602082815260408084206001600160a01b03909316845291905290205490565b6117f0828661176b565b52016117a1565b5090925050565b635b05999160e01b5f5260045260245260445ffd5b805482101561177f575f5260205f2001905f90565b600260045414611839576002600455565b633ee5aeb560e01b5f5260045ffd5b6001600160a01b0381169390919084156116d95781518451908181036119635750505f5b82518110156118b1578060019160051b6118a96118a187610e7a602080868b010151958c010151945f525f60205260405f2090565b918254611fee565b90550161186c565b5092919360018251145f14611928576020828101518482015160408051928352928201525f9133917fc3d58168c5ae7397731d063d5bbf3d657854427343f4c083240f7aacaa2d0f629190a45b805160010361191d57906020806103bd95930151910151915f336121b7565b6103bd935f33612088565b5f6040517f4a39dc06d4c0dbc64b70af90fd698a233a518aa5d07e595d983b8c0526c8f7fb33918061195b888883611ffb565b0390a46118fe565b635b05999160e01b5f5260045260245260445ffd5b916001600160a01b0383169182156116c75760016119b360405192600184526020840152604083019160018352606084015260808301604052565b91906020915f6040516119c6858261035f565b5281518451908181036119635750505f5b8251811015611a67578060051b848082860101519187010151611a0589610e7a845f525f60205260405f2090565b54818110611a305789610e7a6001959493611a299303935f525f60205260405f2090565b55016119d7565b6040516303dee4c560e01b81526001600160a01b038b16600482015260248101919091526044810182905260648101839052608490fd5b50945090915f939260018351148514611abe579182015191015160408051928352602083019190915233917fc3d58168c5ae7397731d063d5bbf3d657854427343f4c083240f7aacaa2d0f6291819081015b0390a4565b50611ab97f4a39dc06d4c0dbc64b70af90fd698a233a518aa5d07e595d983b8c0526c8f7fb91604051918291339583611ffb565b6003546001600160a01b03163303611b0657565b63118cdaa760e01b5f523360045260245ffd5b9060015b825f52600860205260405f20825f5260205260405f20815f5260205260018060a01b0360405f20541615611b5957611b54906113d3565b611b1d565b91505090565b908160209103126101ba575190565b6040513d5f823e3d90fd5b908160209103126101ba57516109ab81610bf1565b3d15611bb8573d90611b9f826105e7565b91611bad604051938461035f565b82523d5f602084013e565b606090565b90929160018060a01b03611bdc61087f845f52600760205260405f2090565b1680611c6857503415611c5957823403611c59575f80808086855af1611c00611b8e565b5015611c4a576040519283526001600160a01b039081169316917f123f9a15788ad8ddf9e0d4da93f8cc6e4e1f30ae91857da66c344e5671a4be6e9080602081015b0390a4600190565b630db2c7f160e31b5f5260045ffd5b637e2897ef60e11b5f5260045ffd5b939034611db757604051636eb1769f60e11b81526001600160a01b0383166004820152306024820152602081604481895afa8015611d745785915f91611d88575b5010611d79576040516323b872dd60e01b81526001600160a01b038381166004830152919091166024820152604481018490526020816064815f895af1908115611d74575f91611d45575b5015611d36576040519283526001600160a01b0316917f37a13dcf7266fe3681e46ca252ea4f79e8a76da88ae9446f99242fbc014a6c39908060208101611c42565b63022e258160e11b5f5260045ffd5b611d67915060203d602011611d6d575b611d5f818361035f565b810190611b79565b5f611cf4565b503d611d55565b611b6e565b6313be252b60e01b5f5260045ffd5b611daa915060203d602011611db0575b611da2818361035f565b810190611b5f565b5f611ca9565b503d611d98565b633320a41160e11b5f5260045ffd5b92939290916001600160a01b038316156116d9576001600160a01b038216156116c7576103bd94611e1460405192600184526020840152604083019160018352606084015260808301604052565b9290915b94939290919384518251908181036119635750506001600160a01b038681169586151595918516801515939192905f5b8451811015611f21578060051b90898988602080868b010151958c01015192611ea0575b93600194611e7e575b50505001611e48565b611e9691610e7a6118a1925f525f60205260405f2090565b90555f8981611e75565b50509091611eb98d610e7a835f525f60205260405f2090565b54828110611eea578291898f611ee1600197968f950391610e7a855f525f60205260405f2090565b55909450611e6c565b6040516303dee4c560e01b81526001600160a01b038f16600482015260248101919091526044810183905260648101829052608490fd5b5091989593929790965060018851145f14611fb45760208881015186820151604080519283529282015233917fc3d58168c5ae7397731d063d5bbf3d657854427343f4c083240f7aacaa2d0f6291a45b611f7d575b5050505050565b8451600103611fa357602080611f9996015192015192336121b7565b5f80808080611f76565b611faf94919233612088565b611f99565b6040517f4a39dc06d4c0dbc64b70af90fd698a233a518aa5d07e595d983b8c0526c8f7fb339180611fe6898d83611ffb565b0390a4611f71565b919082018092116113e157565b90916120126109ab93604084526040840190610967565b916020818403910152610967565b908160209103126101ba57516109ab8161025c565b6001600160a01b0391821681529116602082015260a0604082018190526109ab949193919261207a929161206c9190860190610967565b908482036060860152610967565b916080818403910152610425565b9091949293853b61209c575b505050505050565b6020936120be91604051968795869563bc197c8160e01b875260048701612035565b03815f6001600160a01b0387165af15f918161214d575b5061210f57506120e3611b8e565b805191908261210857632bfa23e760e11b5f526001600160a01b03821660045260245ffd5b9050602001fd5b6001600160e01b0319166343e6837f60e01b0161213257505f8080808080612094565b632bfa23e760e11b5f526001600160a01b031660045260245ffd5b61217091925060203d602011612177575b612168818361035f565b810190612020565b905f6120d5565b503d61215e565b6001600160a01b039182168152911660208201526040810191909152606081019190915260a0608082018190526109ab92910190610425565b9091949293853b6121ca57505050505050565b6020936121ec91604051968795869563f23a6e6160e01b87526004870161217e565b03815f6001600160a01b0387165af15f9181612234575b5061221157506120e3611b8e565b6001600160e01b031916630dc5919f60e01b0161213257505f8080808080612094565b61224e91925060203d60201161217757612168818361035f565b905f61220356fea2646970667358221220f3785f290a88d8048fe58f4539b80e5b4ef871387f5b666609a2e23bf0764bbf64736f6c634300081d0033",
    "sourcePath": "/home/ubox110/TicketingSystem/backend/contracts/Ticket.sol",
    "compiler": {
        "name": "solc",
        "version": "0.8.29+commit.ab55807c"
    },
    "functionHashes": {
        "balanceOf(address,uint256)": "00fdd58e",
        "balanceOfBatch(address[],uint256[])": "4e1273f4",
        "bookTicket(uint256,uint256,uint256)": "b019d3e5",
        "burnTicket(uint256,uint256,uint256)": "39a69fcd",
        "burntTickets(uint256,uint256,uint256)": "e400fade",
        "createEvent(string,string,string,uint256[],uint256[],uint256[],address)": "187a8884",
        "eventPaymentTokens(uint256)": "52b2eb3f",
        "events(uint256)": "0b791430",
        "getEventPaymentDetails(uint256)": "0b12c82f",
        "getEventPaymentToken(uint256)": "60a34115",
        "getOwnedTickets(uint256,uint256,address)": "bbfb76d4",
        "getTicketOwner(uint256,uint256,uint256)": "7837389a",
        "hasBeenTransferred(uint256,address)": "dce84621",
        "isApprovedForAll(address,address)": "e985e9c5",
        "isEthPaymentEvent(uint256)": "5733dcbc",
        "isTicketBurnt(uint256,uint256,uint256)": "972435f2",
        "nextEventId()": "9f9d903a",
        "owner()": "8da5cb5b",
        "renounceOwnership()": "715018a6",
        "safeBatchTransferFrom(address,address,uint256[],uint256[],bytes)": "2eb2c2d6",
        "safeTransferFrom(address,address,uint256,uint256,bytes)": "f242432a",
        "setApprovalForAll(address,bool)": "a22cb465",
        "supportsInterface(bytes4)": "01ffc9a7",
        "ticketOwners(uint256,uint256,uint256)": "bf2ee939",
        "transferOwnership(address)": "f2fde38b",
        "uri(uint256)": "0e89341c"
    },
    "gasEstimates": {
        "creation": {
            "codeDepositCost": "1768600",
            "executionCost": "infinite",
            "totalCost": "infinite"
        },
        "external": {
            "": "624",
            "balanceOf(address,uint256)": "2491",
            "balanceOfBatch(address[],uint256[])": "infinite",
            "bookTicket(uint256,uint256,uint256)": "infinite",
            "burnTicket(uint256,uint256,uint256)": "infinite",
            "burntTickets(uint256,uint256,uint256)": "2994",
            "createEvent(string,string,string,uint256[],uint256[],uint256[],address)": "infinite",
            "eventPaymentTokens(uint256)": "2541",
            "events(uint256)": "infinite",
            "getEventPaymentDetails(uint256)": "2408",
            "getEventPaymentToken(uint256)": "2585",
            "getOwnedTickets(uint256,uint256,address)": "infinite",
            "getTicketOwner(uint256,uint256,uint256)": "2802",
            "hasBeenTransferred(uint256,address)": "2969",
            "isApprovedForAll(address,address)": "3107",
            "isEthPaymentEvent(uint256)": "2566",
            "isTicketBurnt(uint256,uint256,uint256)": "2840",
            "nextEventId()": "2612",
            "owner()": "2592",
            "renounceOwnership()": "28328",
            "safeBatchTransferFrom(address,address,uint256[],uint256[],bytes)": "infinite",
            "safeTransferFrom(address,address,uint256,uint256,bytes)": "infinite",
            "setApprovalForAll(address,bool)": "26869",
            "supportsInterface(bytes4)": "394",
            "ticketOwners(uint256,uint256,uint256)": "2956",
            "transferOwnership(address)": "28721",
            "uri(uint256)": "infinite"
        },
        "internal": {
            "_beforeTokenTransfer(address,address,uint256[] memory)": "infinite",
            "findNextAvailableTicketNumber(uint256,uint256)": "infinite",
            "processPayment(uint256,address,address,uint256)": "infinite"
        }
    }
}